:020000040800F2
:1000000000C00020990A0008350A00083D0A0008CF
:10001000450A00084D0A0008550A000800000000C3
:100020000000000000000000000000005D0A000861
:10003000690A000800000000750A0008810A00082B
:10004000E90A0008E90A0008E90A0008E90A0008C4
:10005000E90A0008E90A0008E90A0008E90A0008B4
:10006000E90A0008E90A0008E90A0008E90A0008A4
:10007000E90A0008E90A0008E90A0008E90A000894
:10008000E90A0008E90A0008E90A0008E90A000884
:10009000E90A0008E90A0008E90A0008E90A000874
:1000A000E90A0008E90A0008E90A0008E90A000864
:1000B000E90A0008E90A0008E90A0008E90A000854
:1000C000E90A0008E90A0008E90A0008E90A000844
:1000D000E90A0008E90A0008E90A0008E90A000834
:1000E000E90A0008E90A0008E90A0008E90A000824
:1000F000E90A0008E90A0008E90A0008E90A000814
:10010000E90A0008E90A0008E90A0008E90A000803
:10011000E90A0008E90A0008E90A0008E90A0008F3
:10012000E90A0008E90A0008E90A0008E90A0008E3
:10013000E90A00080000000000000000E90A0008C9
:10014000E90A0008E90A0008E90A0008E90A0008C3
:10015000E90A0008E90A0008E90A0008E90A0008B3
:10016000E90A0008E90A0008E90A0008E90A0008A3
:10017000E90A0008E90A0008000000000000000089
:04018000E90A000880
:1001840010B5054C237833B9044B13B10448AFF3CD
:1001940000800123237010BD0C000020000000002B
:1001A400D024000808B5034B1BB103490348AFF33F
:1001B400008008BD0000000010000020D0240008CA
:1001C40053B94AB9002908BF00281CBF4FF0FF31BA
:1001D4004FF0FF3000F068B9ADF1080C6DE904CEC2
:1001E40000F006F8DDF804E0DDE9022304B070470E
:1001F4002DE9F047089D0C46002B4ED194468C45C2
:100204008646B2FA82F262D94AB1C2F12003914021
:1002140020FA03F30CFA02FC194300FA02FE4FEA37
:100224001C47B1FBF7F407FB14111FFA8CF64FEAD5
:100234001E4343EA014304FB06F199420AD91CEB2D
:10024400030304F1FF3080F01081994240F20D81E4
:10025400023C6344591AB1FBF7F007FB101100FB91
:1002640006F61FFA8EF343EA01439E420AD91CEBB9
:10027400030300F1FF3180F0FA809E4240F2F780E0
:100284006344023800219B1B40EA04401DB1D34063
:100294000022C5E90032BDE8F0878B4205D90DB1D3
:1002A400C5E9000100210846F5E7B3FA83F1002906
:1002B40046D1A34202D39042C0F0EE80861A64EB8A
:1002C40003030120002DE6D0C5E90063E3E7002A1B
:1002D40040F08F80A1EB0C0401214FEA1C481FFA67
:1002E4008CF7B4FBF8F608FB164407FB06F04FEA5C
:1002F4001E4343EA0443984208D91CEB030306F166
:10030400FF3402D2984200F2CB8026461C1AB4FB7A
:10031400F8F008FB104400FB07F71FFA8EF343EADA
:1003240004439F4208D91CEB030300F1FF3402D2BB
:100334009F4200F2AE802046DB1B40EA0640A5E760
:10034400C1F120078B4022FA07FC4CEA030C24FA83
:1003540007F64FEA1C49B6FBF9F81FFA8CFE09FBB5
:10036400186620FA07F38C4000FA01FA08FB0EF035
:100374001C43230C43EA0643984202FA01F20AD9C9
:100384001CEB030308F1FF3680F0818098427ED98C
:10039400A8F1020863441E1AB6FBF9F309FB1366BD
:1003A40003FB0EFEA4B244EA0644A64508D91CEB9E
:1003B400040403F1FF3066D2A64564D9023B6444C9
:1003C40043EA0840A0FB0283A4EB0E049C42C64609
:1003D4001E4650D34DD055B1BAEB0E0364EB060460
:1003E40004FA07F7CB401F43CC40C5E90074002151
:1003F40051E70CFA02FCC2F12003D9404FEA1C4831
:1004040020FA03F300FA02FEB1FBF8F008FB101126
:1004140094401C431FFA8CF7230C43EA014300FB6E
:1004240007F1994208D91CEB030300F1FF362CD2E3
:1004340099422AD9023863445B1AB3FBF8F108FBEA
:100444001133A4B244EA034401FB07F3A34208D9DD
:100454001CEB040401F1FF3613D2A34211D9023973
:100464006444E41A41EA00413BE70446F2E60846E4
:1004740008E7C245AFD2B8EB020E63EB0C060138B5
:10048400A9E73146EDE703469AE73046D4E7B0469C
:1004940081E7634402384FE706462346084611E7DE
:1004A400023E634432E700BF704700BF80B500AF2F
:1004B40000F01AFB00F00CF800F03EF900F044F8EC
:1004C40000F094F800F014F900F0C6F800BFFDE75E
:1004D40080B592B000AF07F118033022002118460E
:1004E40001F0C8FF3B1D00221A605A609A60DA606E
:1004F4001A610223BB6101237B621023BB620023C8
:100504003B6307F11803184601F060F80346002B1B
:1005140001D000F0A1F90F237B600023BB6000230E
:10052400FB6000233B6100237B613B1D00211846D7
:1005340001F0A0FA0346002B01D000F08DF900BFB2
:100544004837BD4680BD000080B584B000AF3B464F
:1005540000221A605A609A60DA60214B214A1A60BC
:100564001F4B00225A601E4B00229A601C4B002233
:100574001A611B4B00221A76194B002283F82020A3
:10058400174B0022DA62164B174A9A62144B002268
:10059400DA60134B0122DA61114B002283F8302018
:1005A4000F4B01225A610E4800F00CFB0346002B4E
:1005B40001D000F051F900233B6001237B6000234C
:1005C400BB603B461946064800F040FB0346002B3F
:1005D40001D000F041F900BF1037BD4680BD00BF17
:1005E40028000020002001400100000F80B500AF6A
:1005F400174B184A1A60164B4FF482725A60144B08
:1006040000229A60124B0022DA60114B00221A6118
:100614000F4B00225A610E4B00229A610C4B0022B0
:10062400DA610B4B00221A62094B00225A62084B12
:1006340000229A62064B0A22DA62054801F0CCFBDA
:100644000346002B01D000F007F900BF80BD00BFB6
:10065400700000200030014080B586B000AF07F183
:10066400080300221A605A609A60DA603B4600224E
:100674001A605A601D4B4FF080421A601B4B0022D7
:100684005A601A4B00229A60184B4FF0FF32DA601E
:10069400164B00221A61154B00229A61134801F08F
:1006A40024FC0346002B01D000F0D6F84FF480530D
:1006B400BB6007F1080319460C4801F065FC0346CA
:1006C400002B01D000F0C8F800233B6000237B60BE
:1006D4003B461946054801F053FE0346002B01D062
:1006E40000F0BAF800BF1837BD4680BDC80000202E
:1006F40080B500AF0E4B0F4A1A600D4B00225A60B2
:100704000B4B00229A600A4B4FF6FF72DA60084BDB
:1007140000221A61064B00229A61054801F0E5FBAC
:100724000346002B01D000F097F800BF80BD00BF46
:1007340010010020001C004080B588B000AF07F114
:100744000C0300221A605A609A60DA601A6100236E
:10075400BB603D4B1B6B3C4A43F0040313633A4BB1
:100764001B6B03F00403BB60BB6800237B60364B48
:100774001B6B354A43F001031363334B1B6B03F0CC
:1007840001037B607B6800233B602F4B1B6B2E4A6D
:1007940043F0020313632C4B1B6B03F002033B6017
:1007A4003B6800229F21294800F0F8FE00224FF404
:1007B4008071274800F0F2FE9F23FB6001233B6118
:1007C40000237B610023BB6107F10C0319461F481A
:1007D40000F046FD46F20E23FB6000233B6100233C
:1007E4007B6107F10C031946194800F039FD4FF4F9
:1007F4009073FB6000233B6100237B6107F10C03D2
:100804001946124800F02CFDFF23FB6000233B61D6
:1008140000237B6107F10C0319460E4800F020FD0C
:100824004FF48073FB6001233B6100237B61002351
:10083400BB6107F10C031946054800F011FD00BF28
:100844002037BD4680BD00BF00380240000802408A
:10085400000002400004024080B400AF72B600BF42
:1008640000BFFDE780B483B000AF00237B600F4B73
:100874005B6C0E4A43F4804353640C4B5B6C03F48F
:1008840080437B607B6800233B60084B1B6C074AFA
:1008940043F080531364054B1B6C03F080533B609F
:1008A4003B6800BF0C37BD4680BC7047003802402F
:1008B40080B58AB000AF786007F1140300221A6093
:1008C4005A609A60DA601A617B681B68174A93421F
:1008D40027D100233B61164B5B6C154A43F48073AC
:1008E4005364134B5B6C03F480733B613B690023DB
:1008F400FB600F4B1B6B0E4A43F0010313630C4B5D
:100904001B6B03F00103FB60FB6801237B61032382
:10091400BB610023FB6107F114031946054800F08D
:100924009FFC00BF2837BD4680BD00BF00200140AA
:10093400003802400000024080B58AB000AF786001
:1009440007F1140300221A605A609A60DA601A618F
:100954007B681B68194A93422BD100233B61184BD7
:100964005B6C174A43F480535364154B5B6C03F47C
:1009740080533B613B690023FB60114B1B6B104AA6
:1009840043F0010313630E4B1B6B03F00103FB6085
:10099400FB68F0237B610223BB610023FB6103231B
:1009A4003B6205237B6207F114031946054800F0F6
:1009B40057FC00BF2837BD4680BD00BF0030014052
:1009C400003802400000024080B485B000AF786077
:1009D4007B681B68B3F1804F0ED10023FB60124B80
:1009E4001B6C114A43F0010313640F4B1B6C03F09F
:1009F4000103FB60FB6812E07B681B680B4A9342AF
:100A04000DD10023BB60084B1B6C074A43F08003E5
:100A14001364054B1B6C03F08003BB60BB6800BF11
:100A24001437BD4680BC704700380240001C0040AB
:100A340080B400AF00BFFDE780B400AF00BFFDE7A6
:100A440080B400AF00BFFDE780B400AF00BFFDE796
:100A540080B400AF00BFFDE780B400AF00BFBD4667
:100A640080BC704780B400AF00BFBD4680BC7047F7
:100A740080B400AF00BFBD4680BC704780B500AFF6
:100A840000F084F800BF80BD80B400AF00BFBD4655
:100A940080BC7047DFF834D0FFF7F6FF0C480D49EF
:100AA4000D4A002302E0D458C4500433C4188C42C5
:100AB400F9D30A4A0A4C002301E013600432A2422B
:100AC400FBD301F0DFFCFFF7F1FC704700C000200E
:100AD400000000200C000020082500080C00002065
:100AE4005C010020FEE7000080B500AF0E4B1B68E0
:100AF4000D4A43F4007313600B4B1B680A4A43F41A
:100B040080631360084B1B68074A43F480731360C7
:100B1400032000F071FB0F2000F008F8FFF7A2FE9D
:100B24000023184680BD00BF003C024080B582B05F
:100B340000AF7860124B1A68124B1B7819464FF4B9
:100B44007A73B3FBF1F3B2FBF3F3184600F07BFBCB
:100B54000346002B01D001230EE07B680F2B0AD83B
:100B6400002279684FF0FF3000F051FB064A7B68A1
:100B74001360002300E0012318460837BD4680BDFA
:100B840000000020080000200400002080B400AF12
:100B9400054B1B781A46054B1B681344034A136024
:100BA40000BFBD4680BC70470800002058010020EB
:100BB40080B400AF024B1B681846BD4680BC70472A
:100BC4005801002080B584B000AF78600023FB7327
:100BD4007B68002B01D1012333E07B681B6C002B65
:100BE40009D17868FFF764FE7B6800225A647B6849
:100BF400002283F83C207B681B6C03F01003002B5D
:100C040018D17B681B6C23F4885323F0020343F050
:100C140002027B681A64786800F038F97B68002265
:100C24005A647B681B6C23F0030343F001027B6866
:100C34001A6401E00123FB737B68002283F83C20E3
:100C4400FB7B18461037BD4680BD000080B485B0DC
:100C540000AF786039600023FB607B6893F83C3018
:100C6400012B01D1022303E17B68012283F83C209C
:100C74003B681B68092B25D97B681B68D9683B68CE
:100C84001B689BB21A4613465B0013441E3B0722A3
:100C940002FA03F3DA437B681B680A40DA607B6874
:100CA4001B68D9683B689A683B681B689BB2184606
:100CB40003465B0003441E3B9A407B681B680A435F
:100CC400DA6022E07B681B6819693B681B689BB289
:100CD4001A4613465B001344072202FA03F3DA436D
:100CE4007B681B680A401A617B681B6819693B684A
:100CF4009A683B681B689BB2184603465B00034432
:100D04009A407B681B680A431A613B685B68062B40
:100D140024D87B681B68596B3B685A6813469B0050
:100D24001344053B1F2202FA03F3DA437B681B6872
:100D34000A405A637B681B68596B3B681B689BB20B
:100D440018463B685A6813469B001344053B00FA57
:100D540003F27B681B680A435A634CE03B685B6898
:100D64000C2B24D87B681B68196B3B685A681346A4
:100D74009B001344233B1F2202FA03F3DA437B68EC
:100D84001B680A401A637B681B68196B3B681B6805
:100D94009BB218463B685A6813469B001344233B96
:100DA40000FA03F27B681B680A431A6323E07B683A
:100DB4001B68D96A3B685A6813469B001344413B3D
:100DC4001F2202FA03F3DA437B681B680A40DA62E3
:100DD4007B681B68D96A3B681B689BB218463B68F2
:100DE4005A6813469B001344413B00FA03F27B68A4
:100DF4001B680A43DA627B681B68204A934209D164
:100E04003B681B68122B05D11D4B5B681C4A43F4DD
:100E1400800353607B681B68184A934223D13B6864
:100E24001B68102B03D03B681B68112B1BD1144B80
:100E34005B68134A43F4000353603B681B68102B40
:100E440011D1104B1B68104AA2FB03239A0C1346C2
:100E54009B0013445B00FB6002E0FB68013BFB600A
:100E6400FB68002BF9D17B68002283F83C20002327
:100E740018461437BD4680BC704700BF00200140AF
:100E8400002301400000002083DE1B4380B485B0B2
:100E940000AF78607E4B5B687D4A23F44033536037
:100EA4007B4B5A687B685B68794913434B607B686A
:100EB4001B685A687B681B6822F480725A607B68DE
:100EC4001B6859687B681B691A027B681B680A43A4
:100ED4005A607B681B685A687B681B6822F0407202
:100EE4005A607B681B6859687B689A687B681B68D2
:100EF4000A435A607B681B689A687B681B6822F403
:100F040000629A607B681B6899687B68DA687B6812
:100F14001B680A439A607B689B6A5E4A934222D0AC
:100F24007B681B689A687B681B6822F070629A6011
:100F34007B681B6899687B689A6A7B681B680A43AC
:100F44009A607B681B689A687B681B6822F0405231
:100F54009A607B681B6899687B68DA6A7B681B689F
:100F64000A439A600FE07B681B689A687B681B6879
:100F740022F070629A607B681B689A687B681B68C1
:100F840022F040529A607B681B689A687B681B68F1
:100F940022F002029A607B681B6899687B681B7E5A
:100FA4005A007B681B680A439A607B6893F8203078
:100FB400002B27D07B681B685A687B681B6842F447
:100FC40000625A607B681B685A687B681B6822F45D
:100FD40060425A607B685B6A013B4FF46042FA608E
:100FE400FA6892FAA2F2BA60BA68B2FA82F2D2B29B
:100FF40003FA02F17B681B685A687B681B680A4322
:101004005A6007E07B681B685A687B681B6822F497
:1010140000625A607B681B68DA6A7B681B6822F48A
:101024007002DA627B681B68D96A7B68DB69013B02
:101034001A057B681B680A43DA627B681B689A6836
:101044007B681B6822F400729A607B681B6899684D
:101054007B6893F830305A027B681B680A439A60B5
:101064007B681B689A687B681B6822F480629A60BC
:101074007B681B6899687B685B699A027B681B685C
:101084000A439A6000BF1437BD4680BC704700BF56
:10109400002301400100000F80B485B000AF7860E8
:1010A4007B6803F00703FB600C4BDB68BB60BA682A
:1010B4004FF6FF031340BB60FB681A02BB6813437F
:1010C40043F0BF6343F40033BB60044ABB68D3609E
:1010D40000BF1437BD4680BC704700BF00ED00E080
:1010E40080B400AF044BDB681B0A03F00703184607
:1010F400BD4680BC704700BF00ED00E080B483B003
:1011040000AF03463960FB7197F90730002B0ADB07
:101114003B68DAB20C4997F907301201D2B20B449A
:1011240083F800230AE03B68DAB20849FB7903F04C
:101134000F03043B1201D2B20B441A7600BF0C37E2
:10114400BD4680BC704700BF00E100E000ED00E058
:1011540080B489B000AFF860B9607A60FB6803F0CE
:101164000703FB61FB69C3F10703042B28BF0423B6
:10117400BB61FB690433062B02D9FB69033B00E026
:1011840000237B614FF0FF32BB6902FA03F3DA43B9
:10119400BB681A407B699A404FF0FF317B6901FAC2
:1011A40003F3D9437B680B40134318462437BD46E9
:1011B40080BC704780B582B000AF78607B68013B2B
:1011C400B3F1807F01D301230FE00A4A7B68013B1E
:1011D40053600F214FF0FF30FFF790FF054B0022C3
:1011E4009A60044B07221A60002318460837BD464C
:1011F40080BD00BF10E000E080B582B000AF786031
:101204007868FFF749FF00BF0837BD4680BD80B549
:1012140086B000AF0346B9607A60FB7300237B613C
:10122400FFF75EFF78617A68B9687869FFF790FF25
:10123400024697F90F3011461846FFF75FFF00BFCB
:101244001837BD4680BD80B582B000AF786078683D
:10125400FFF7B0FF034618460837BD4680BD0000BF
:1012640080B487B000AF7860396000237B616FE1A0
:101274003B681A6801217B6901FA03F31340FB60A0
:10128400FB68002B00F061813B685B6803F003039B
:10129400012B05D03B685B6803F00303022B30D1BC
:1012A4007B689B683B617B695B00032202FA03F362
:1012B400DB433A6913403B613B68DA687B695B0056
:1012C40002FA03F33A6913433B617B683A699A6013
:1012D4007B685B683B6101227B6902FA03F3DB43B1
:1012E4003A6913403B613B685B681B0903F00102E8
:1012F4007B6902FA03F33A6913433B617B683A69F9
:101304005A603B685B6803F00303032B17D07B68C8
:10131400DB683B617B695B00032202FA03F3DB4376
:101324003A6913403B613B689A687B695B0002FA47
:1013340003F33A6913433B617B683A69DA603B68BB
:101344005B6803F00303022B23D17B69DA087B6813
:10135400083253F822303B617B6903F007039B009A
:101364000F2202FA03F3DB433A6913403B613B6803
:101374001A697B6903F007039B0002FA03F33A69D5
:1013840013433B617B69DA087B680832396943F8A7
:1013940022107B681B683B617B695B00032202FAB5
:1013A40003F3DB433A6913403B613B685B6803F03A
:1013B40003027B695B0002FA03F33A6913433B615E
:1013C4007B683A691A603B685B6803F44033002B1E
:1013D40000F0BB800023BB60644B5B6C634A43F446
:1013E40080435364614B5B6C03F48043BB60BB6814
:1013F4005F4A7B699B08023352F823303B617B6967
:1014040003F003039B000F2202FA03F3DB433A6960
:1014140013403B617B68574A934231D07B68564AFC
:1014240093422BD07B68554A934225D07B68544A1B
:1014340093421FD07B68534A934219D07B68524A27
:10144400934213D07B68514A93420DD07B68504A33
:10145400934207D07B684F4A934201D1082310E09E
:1014640009230EE007230CE006230AE0052308E025
:10147400042306E0032304E0022302E0012300E046
:1014840000237A6902F00302920093401A463B69F2
:1014940013433B6136497B699B0802333A6941F83F
:1014A40023203D4B9B683B61FB68DB433A69134057
:1014B4003B613B685B6803F48013002B03D03A69FB
:1014C400FB6813433B61344A3B699360324BDB68EE
:1014D4003B61FB68DB433A6913403B613B685B68F3
:1014E40003F40013002B03D03A69FB6813433B61F8
:1014F400294A3B69D360284B5B683B61FB68DB434B
:101504003A6913403B613B685B6803F40033002B8A
:1015140003D03A69FB6813433B611F4A3B6953603C
:101524001D4B1B683B61FB68DB433A6913403B611D
:101534003B685B6803F48033002B03D03A69FB6893
:1015440013433B61144A3B6913607B6901337B613C
:101554003B681A687B6922FA03F3002B7FF488AE98
:1015640000BF00BF1C37BD4680BC70470038024036
:10157400003801400000024000040240000802401C
:10158400000C024000100240001402400018024007
:10159400001C024000200240003C014080B483B0A3
:1015A40000AF78600B467B8013467B707B78002B02
:1015B40003D07A887B689A6103E07B881A047B688D
:1015C4009A6100BF0C37BD4680BC704780B58AB0B5
:1015D40000AF78607B68002B01D101233BE27B687C
:1015E4001B6803F00103002B50D09E4B9B6803F053
:1015F4000C03042B0CD09B4B9B6803F00C03082BAF
:1016040012D1984B5B6803F48003B3F5800F0BD1C0
:10161400944B1B6803F40033002B36D07B685B6863
:10162400002B32D1012316E27B685A688E4BD2B26A
:101634001A707B685B68002B13D0FFF7B9FA386225
:1016440008E0FFF7B5FA02463B6AD31A642B01D9C6
:10165400032300E2834B1B6803F40033002BF0D018
:1016640014E0FFF7A5FA386208E0FFF7A1FA024692
:101674003B6AD31A642B01D90323ECE1794B1B6831
:1016840003F40033002BF0D100E000BF7B681B683B
:1016940003F00203002B77D0724B9B6803F00C031A
:1016A400002B0BD06F4B9B6803F00C03082B26D147
:1016B4006C4B5B6803F48003002B20D1694B1B68DF
:1016C40003F00203002B05D07B68DB68012B01D0FB
:1016D4000123C0E1634B1B6823F0F8027B681B699C
:1016E400F821B961B96991FAA1F179617969B1FA1D
:1016F40081F1C9B28B405B4913430B6044E07B68C2
:10170400DB68002B2AD0594B01221A60FFF750FAEC
:10171400386208E0FFF74CFA02463B6AD31A022B00
:1017240001D9032397E14F4B1B6803F00203002BFD
:10173400F0D04C4B1B6823F0F8027B681B69F8213E
:101744003961396991FAA1F1F960F968B1FA81F165
:10175400C9B28B40434913430B6015E0434B00224D
:101764001A60FFF725FA386208E0FFF721FA02460B
:101774003B6AD31A022B01D903236CE1394B1B6852
:1017840003F00203002BF0D17B681B6803F008030D
:10179400002B30D07B685B69002B16D0344B0122C0
:1017A4001A60FFF705FA386208E0FFF701FA02460B
:1017B4003B6AD31A022B01D903234CE1294B5B6FFB
:1017C40003F00203002BF0D015E0294B00221A602D
:1017D400FFF7EEF9386208E0FFF7EAF902463B6AE0
:1017E400D31A022B01D9032335E11E4B5B6F03F09F
:1017F4000203002BF0D17B681B6803F00403002B69
:1018040000F08780002387F82730164B1B6C03F009
:101814008053002B10D10023BB60124B1B6C114A68
:1018240043F0805313640F4B1B6C03F08053BB6075
:10183400BB68012387F827300E4B1B680D4A43F41D
:10184400807313600B4B1B6803F48073002B22D14D
:10185400084B1B68074A43F480731360FFF7A8F929
:10186400386212E000380240023802400000474269
:10187400800E474200700040FFF79AF902463B6A27
:10188400D31A022B01D90323E5E0754B1B6803F43B
:101894008073002BF0D07B689A68724BD2B21A70B6
:1018A4007B689B68002B15D0FFF782F938620AE049
:1018B400FFF77EF902463B6AD31A41F2883293421B
:1018C40001D90323C7E0684B1B6F03F00203002B0D
:1018D400EED014E0FFF76CF938620AE0FFF768F91C
:1018E40002463B6AD31A41F28832934201D9032358
:1018F400B1E05D4B1B6F03F00203002BEED197F8B0
:101904002730012B05D1584B1B6C574A23F08053C9
:1019140013647B689B69002B00F09C80524B9B688E
:1019240003F00C03082B61D07B689B69022B46D122
:101934004E4B00221A60FFF73BF9386208E0FFF7CC
:1019440037F902463B6AD31A642B01D9032382E098
:10195400454B1B6803F00073002BF0D1424B5A68CF
:10196400434B13407A68D1697A68126A11437A68E2
:10197400526A920111437A68D26A120611437A6854
:10198400926A5208013A12040A43374913434B60DE
:10199400364B01221A60FFF70BF9386208E0FFF7B3
:1019A40007F902463B6AD31A642B01D9032352E098
:1019B4002D4B1B6803F00073002BF0D04AE02B4B37
:1019C40000221A60FFF7F4F8386208E0FFF7F0F835
:1019D40002463B6AD31A642B01D903233BE0224B12
:1019E4001B6803F00073002BF0D133E07B689B6924
:1019F400012B01D101232EE01B4B5B68FB61FB69CA
:101A040003F480027B68DB699A4221D1FB6903F00D
:101A14003F027B681B6A9A421AD1FA6947F6C0737F
:101A240013407A68526A9201934211D1FB6903F41C
:101A340040327B689B6A5B08013B1B049A4207D1D6
:101A4400FB6903F070627B68DB6A1B069A4201D073
:101A5400012300E0002318462837BD4680BD00BF9F
:101A64000070004070380240003802406000474275
:101A74000080BCF080B586B000AF786039607B68C8
:101A8400002B01D10123D2E06B4B1B6803F00F0341
:101A94003A689A420CD9684B3A68D2B21A70664BCB
:101AA4001B6803F00F033A689A4201D00123BEE099
:101AB4007B681B6803F00203002B20D07B681B6843
:101AC40003F00403002B05D05C4B9B685B4A43F492
:101AD400E05393607B681B6803F00803002B05D078
:101AE400564B9B68554A43F460439360534B9B6841
:101AF40023F0F0027B689B68504913438B607B683A
:101B04001B6803F00103002B40D07B685B68012B4A
:101B140007D14A4B1B6803F40033002B15D1012372
:101B240085E07B685B68022B07D1444B1B6803F09C
:101B34000073002B09D1012379E0404B1B6803F0AB
:101B44000203002B01D1012371E03C4B9B6823F07D
:101B540003027B685B68394913438B60FFF728F8FD
:101B640078610AE0FFF724F802467B69D31A41F250
:101B74008832934201D9032359E0304B9B6803F028
:101B84000C027B685B689B009A42EBD12A4B1B6872
:101B940003F00F033A689A420CD2274B3A68D2B248
:101BA4001A70254B1B6803F00F033A689A4201D060
:101BB40001233CE07B681B6803F00403002B08D07E
:101BC4001E4B9B6823F4E0527B68DB681B4913437C
:101BD4008B607B681B6803F00803002B09D0174B4C
:101BE4009B6823F460427B681B69DB001349134341
:101BF4008B6000F02BF80146104B9B6803F0F00358
:101C0400F0223A613A6992FAA2F2FA60FA68B2FAF8
:101C140082F2D2B2D3400A4AD35C21FA03F3094ACE
:101C24001360094B1B681846FEF780FF0023184613
:101C34001837BD4680BD00BF003C0240003802405A
:101C4400E824000800000020040000202DE9B04F23
:101C540090B000AF00237B630023FB6300233B634E
:101C64000023BB63594B9B6803F00C03082B0DD076
:101C7400082B00F2A280002B02D0042B03D09CE09E
:101C8400534BBB639CE0534BBB6399E04F4B5B6886
:101C940003F03F037B634D4B5B6803F48003002B2D
:101CA40027D04A4B5B689B0900223B627A623B6AFD
:101CB400C3F308000021474B03FB01F2002300FBA0
:101CC40003F31344434AA0FB0221F962BA62FA6A9D
:101CD4001344FB627B6B0022BB61FA61D7E90623E4
:101CE400D7E90A01FEF76CFA02460B461346FB637A
:101CF40055E0364B5B689B0900223B617A613B6986
:101D0400C3F3080A4FF0000B52465B464FF0000045
:101D14004FF00001590141EAD261500102460B46DD
:101D2400B2EB0A0863EB0B094FF000024FF000031B
:101D34004FEA891343EA98634FEA8812B2EB080426
:101D440063EB09054FF000024FF00003EB0043EA98
:101D54005473E20014461D4614EB0A033B6045EB42
:101D64000B037B604FF000024FF00003D7E90045FE
:101D740029468B0220462946044643EA94530146E9
:101D84008A02104619467B6B0022BB60FA60D7E9D1
:101D94000223FEF715FA02460B461346FB630B4B70
:101DA4005B681B0C03F0030301335B003B63FA6BBA
:101DB4003B6BB2FBF3F3BB6302E0054BBB6300BFB9
:101DC400BB6B18464037BD46BDE8B08F00380240B3
:101DD4000024F40040787D0180B582B000AF7860C3
:101DE4007B68002B01D101237BE07B685B6A002BBD
:101DF40008D17B685B68B3F5827F09D07B680022D9
:101E0400DA6105E07B6800221A617B6800225A616E
:101E14007B6800229A627B6893F85130DBB2002B16
:101E240006D17B68002283F850207868FEF784FD91
:101E34007B68022283F851207B681B681A687B68E0
:101E44001B6822F040021A607B685B6803F48272AC
:101E54007B689B6803F404431A437B68DB6803F4E0
:101E640000631A437B681B6903F002031A437B680F
:101E74005B6903F001031A437B689B6903F40073F5
:101E84001A437B68DB6903F038031A437B681B6AD7
:101E940003F0800342EA03017B689B6A03F4005267
:101EA4007B681B680A431A607B689B691B0C03F000
:101EB40004017B685B6A03F010027B681B680A43B9
:101EC4005A607B681B68DA697B681B6822F40062CD
:101ED400DA617B6800225A657B68012283F851200D
:101EE400002318460837BD4680BD80B582B000AFD8
:101EF40078607B68002B01D1012341E07B6893F873
:101F04003D30DBB2002B06D17B68002283F83C20F5
:101F14007868FEF759FD7B68022283F83D207B68D0
:101F24001A687B6804331946104600F0F5F87B689C
:101F3400012283F846207B68012283F83E207B68D7
:101F4400012283F83F207B68012283F840207B68CC
:101F5400012283F841207B68012283F842207B68B8
:101F6400012283F843207B68012283F844207B68A4
:101F7400012283F845207B68012283F83D20002359
:101F840018460837BD4680BD80B584B000AF786080
:101F940039600023FB737B6893F83C30012B01D13B
:101FA4000223B4E07B68012283F83C207B68022290
:101FB40083F83D207B681B689B68BB60BB6823F08B
:101FC4007703BB60BB6823F47F43BB607B681B68FB
:101FD400BA689A603B681B68B3F5005F3ED0B3F5FE
:101FE400005F00F28780B3F5805F00F08680B3F570
:101FF400805F7FD8702B1AD0702B7BD8602B50D089
:10200400602B77D8502B3CD0502B73D8402B58D012
:10201400402B6FD8302B64D0302B6BD8202B60D062
:10202400202B67D8002B5CD0102B5AD062E07B6841
:1020340018683B6899683B685A683B68DB6800F03D
:1020440080F97B681B689B68BB60BB6843F07703BF
:10205400BB607B681B68BA689A604FE07B6818684D
:102064003B6899683B685A683B68DB6800F069F92B
:102074007B681B689A687B681B6842F480429A609C
:102084003CE07B6818683B6859683B68DB681A4623
:1020940000F0E0F87B681B685021184600F037F91F
:1020A4002CE07B6818683B6859683B68DB681A4613
:1020B40000F0FEF87B681B686021184600F027F9E1
:1020C4001CE07B6818683B6859683B68DB681A4603
:1020D40000F0C0F87B681B684021184600F017F92F
:1020E4000CE07B681A683B681B681946104600F0D0
:1020F4000EF903E00123FB7300E000BF7B680122BB
:1021040083F83D207B68002283F83C20FB7B184643
:102114001037BD4680BD000080B485B000AF786044
:1021240039607B681B68FB607B683F4A934213D02D
:102134007B68B3F1804F0FD07B683C4A93420BD04D
:102144007B683B4A934207D07B683A4A934203D068
:102154007B68394A934208D1FB6823F07003FB6023
:102164003B685B68FA681343FB607B682E4A9342C2
:102174002BD07B68B3F1804F27D07B682B4A9342E6
:1021840023D07B682A4A93421FD07B68294A934212
:102194001BD07B68284A934217D07B68274A934216
:1021A40013D07B68264A93420FD07B68254A93421A
:1021B4000BD07B68244A934207D07B68234A93421E
:1021C40003D07B68224A934208D1FB6823F440730E
:1021D400FB603B68DB68FA681343FB60FB6823F031
:1021E40080023B685B691343FB607B68FA681A6092
:1021F4003B689A687B68DA623B681A687B689A6213
:102204007B68094A934203D07B680B4A934203D10B
:102214003B681A697B681A637B6801225A6100BFB4
:102224001437BD4680BC70470000014000040040E4
:1022340000080040000C0040000401400040014040
:10224400004401400048014000180040001C0040C8
:102254000020004080B487B000AFF860B9607A60B5
:10226400FB681B6A7B61FB681B6A23F00102FB6845
:102274001A62FB689B693B613B6923F0F0033B6195
:102284007B681B013A6913433B617B6923F00A03B2
:102294007B617A69BB6813437B61FB683A699A6125
:1022A400FB687A691A6200BF1C37BD4680BC704760
:1022B40080B487B000AFF860B9607A60FB681B6ACD
:1022C4007B61FB681B6A23F01002FB681A62FB68DF
:1022D4009B693B613B6923F470433B617B681B034F
:1022E4003A6913433B617B6923F0A0037B61BB68BC
:1022F4001B017A6913437B61FB683A699A61FB6845
:102304007A691A6200BF1C37BD4680BC704780B42E
:1023140085B000AF786039607B689B68FB60FB68C0
:1023240023F07003FB603A68FB68134343F0070330
:10233400FB607B68FA689A6000BF1437BD4680BCB6
:10234400704780B487B000AFF860B9607A603B60D2
:10235400FB689B687B617B6923F47F437B613B68FB
:102364001A027B681A43BB6813437A6913437B617F
:10237400FB687A699A6000BF1C37BD4680BC704711
:1023840080B485B000AF786039607B6893F83C30E6
:10239400012B01D102235AE07B68012283F83C20FF
:1023A4007B68022283F83D207B681B685B68FB60C6
:1023B4007B681B689B68BB60FB6823F07003FB6051
:1023C4003B681B68FA681343FB607B681B68FA6808
:1023D4005A607B681B68204A934222D07B681B6842
:1023E400B3F1804F1DD07B681B681C4A934218D000
:1023F4007B681B681A4A934213D07B681B68194A8E
:1024040093420ED07B681B68174A934209D07B68BD
:102414001B68164A934204D07B681B68144A934293
:102424000CD1BB6823F08003BB603B685B68BA686F
:102434001343BB607B681B68BA689A607B6801229F
:1024440083F83D207B68002283F83C200023184653
:102454001437BD4680BC70470000014000040040B2
:1024640000080040000C004000040140004001400E
:102474000018004003460244934200D1704703F819
:10248400011BF9E770B500260C4D0D4C641BA4101C
:10249400A64209D100F01AF800260A4D0A4C641B22
:1024A400A410A64205D170BD55F8043B98470136E7
:1024B400EEE755F8043B98470136F2E7002500089B
:1024C400002500080025000804250008F8B500BF11
:1024D400F8BC08BC9E467047F8B500BFF8BC08BC01
:0424E4009E46704759
:1024E80000000000000000000102030406070809BC
:0824F800FCDCFF7F0100000085
:04250000A901000825
:042504008501000845
:0C2508000024F40010000000010000009E
:0400000508000A994C
:00000001FF
